:020000021000EC
:1080000000400020F9CC010041CD010043CD01002A
:108010000000000000000000000000000000000060
:1080200000000000000000000000000045CD01003D
:10803000000000000000000047CD010049CD010014
:108040004BCD01004BCD01006D890100AD8B0100CE
:108050004BCD0100000000004BCD0100BD8C0100A4
:108060004BCD010029860100A18501004BCD010007
:108070004BCD01004BCD01004BCD01004BCD01009C
:108080004BCD0100DDB101004BCD01004BCD010016
:10809000BDB201004D920100C5CC01004BCD0100E5
:1080A0004BCD01004BCD010000000000000000009E
:1080B00000000000000000000000000000000000C0
:1080C00010B5064C2378002B07D1054B002B02D0AE
:1080D000044800E000BF0123237010BDB42000203D
:1080E000000000007C2C0200044B10B5002B03D0D4
:1080F0000349044800E000BF10BDC0460000000076
:10810000B82000207C2C0200164B002B00D1144B11
:108110009D46402292029A1A924600218B460F46B3
:108120001348144A121A00F065F80F4B002B00D0C8
:1081300098470E4B002B00D09847002000210400E8
:108140000D000D48002802D00C4800E000BF00F0F0
:108150002DF82000290000F0BDF800F011F8C0460D
:1081600000000800004000200000000000000000A7
:10817000B42000205C2A0020000000000000000065
:10818000084B10B50400002B02D0002100E000BF16
:10819000054B1868836A002B00D09847200000F038
:1081A00031F8C04600000000A81A020070B5002691
:1081B0000C4D0D4C641BA410A64209D1002609F0F9
:1081C00067FC0A4D0A4C641BA410A64205D170BD81
:1081D000B300EB5898470136EEE7B300EB589847E9
:1081E0000136F2E7AC200020AC200020AC200020BB
:1081F000B020002003008218934200D1704719700C
:108200000133F9E7FEE7C0461C4B1B78012B00D079
:1082100070471B4B1B681B07FAD11A4AF0231268E0
:10822000110019401A4201D0102924D1164A1268AF
:108230001A4210D0F022134B1B681340402BE7D199
:10824000114B1B681342E3D18022C1230121D205C7
:10825000DB00D150DCE70D4B0D4A1A6080220D4B3C
:1082600012021A60054B1B78012BD1D1044B1B68FD
:108270001B07DFD0CCE73029D8D0DBE7E00F00F0D8
:10828000E40F00F0E80F00F0EC0F00F004050040F0
:10829000DFFF07C0186C004082B00190019B002BEB
:1082A00014D0019B0A48013B01930138C046C046E7
:1082B000C046C046C046C046C046C046C046C0468E
:1082C000C046C046F1D1019B002BEAD102B07047F5
:1082D000E7030000F8B5DE4657464E464546E0B592
:1082E00000F086FB00F010F900F006FA00F0F8FC50
:1082F00000F096FC6421012002F08AFE00F0E4FD0B
:1083000000F0FCFD00F0BEFF334B822498460023B2
:1083100042461370314A00251370A023DB059946AD
:108320002F4B304F9A46304E64003B5B002B41D1BF
:10833000335B002B46D100F0D3F9002819D06B1C19
:10834000142128009B4605F01FFB00290AD14B464B
:1083500052469A588023DB051A4239D1A122494658
:10836000D2008B5000F09EFC5D4600F0D7FC00F080
:10837000BDF902F03BFE002811D143461B78002BCB
:10838000D3D01A4808F0DCF90A20FFF785FFBFF3C5
:108390004F8F174B174ADA60BFF34F8FFEE702F09B
:1083A000BBFD00F0A1F843461B78002BE9D13B5BF5
:1083B000002BBDD0380001F095F800F089F8335B50
:1083C000002BB8D0300001F08DF800F017F8B2E7BC
:1083D0004946094A8B50C5E7FC25002000260020AD
:1083E00004050000142600202C280020AC1A0200EE
:1083F00000ED00E00400FA050C0500001B2847D042
:108400006138C0B2162808D82C4B80001B589F46F4
:108410002B4A53880A3353807047A023294ADB052F
:108420009A58520238D4A1228021D200C90399500F
:10843000F2E7234A13880A3B19B21B0431D4118096
:10844000EAE71F4AD3880A3B19B21B0432D4D18011
:10845000E2E71B4A13880A331380DDE7184AD38802
:108460000A33D380D8E7164A53880A3B19B21B0453
:108470001DD45180D0E7124A93880A3B19B21B04DD
:1084800012D49180C8E70E4A93880A339380C3E7D9
:1084900001220D4B1A70BFE780210C4AC903995085
:1084A000BAE700231380B7E700239380B4E70023E3
:1084B0005380B1E70023D380AEE7C046BC1A020068
:1084C0000C26002004050000FC2500200C050000FF
:1084D00010B5AA2801D0002010BD024808F030F9DC
:1084E000F9E7C046181B0200054A064B118819809F
:1084F0005188598091889980D288DA807047C04627
:108500000C26002004260020A222194B1949D20073
:108510009950194A194980209950194904329950A3
:10852000184A1949C0039950A023EB210322DB0507
:10853000C9005A5008315A5010315A5008315A5017
:10854000A121C90058508020400458508020400587
:1085500058508020C00558500C495A5004315A5088
:1085600028395A5008395A500021094A9950704701
:1085700000600040031513001405000003171300EA
:10858000031913001C050000031D13004C07000015
:10859000140700000122014B1A707047BC22002012
:1085A000A62210B51B4B52009958002930D000214B
:1085B000995019490A683932FF320A6001229A64D7
:1085C000164A1278002A23D1A922D2009A58FA23F7
:1085D0005B009A421CD2FA20114B800099880A1C39
:1085E000814200D9021CFA2491B29A80DA88A40050
:1085F000101CA24200D9201CFA24D88082B2A820E4
:10860000A4000B190349C0000B501319054A8B50E5
:1086100010BDC04600A00040982200203229002052
:108620000426002044050000A62210B51F4B52006E
:108630009958002939D0002199504C3AFF3A9A6450
:108640001B4A1278002A30D1A922D2009A58FA2364
:108650005B009A4229D2A022A1238021FA20D205D0
:10866000DB004903D150134B800019880A1C81425A
:1086700000D9021CFA2491B21A805A88A400101C56
:10868000A24200D9201CFA24588082B2A820A4005B
:108690000B190649C0000B501319074A8B50A02232
:1086A0008021064BD2054903D15010BD00900040F7
:1086B0003229002004260020440500000C0500009B
:1086C0000122054B9A64A922D2009858034BC00896
:1086D0001B68C0187047C04600A0004098220020C8
:1086E000014B18787047C046BC2200200022014B85
:1086F0001A707047BC220020F8B557464E464546D2
:108700000023DE464F4AE0B513604F4A0121137043
:10871000A2234E4ADB00D1509C46C1239B009A46BF
:1087200080231B039B4653465846A827FA24D05063
:10873000474E484B484DA400FF008020D451994635
:108740009451535108236546800013509846434B7B
:10875000D1605E46595155465E513D4EDC519C51AB
:108760004C463D4D5C5144461C50D9601160C022BE
:10877000520090468022D2009146196042464946F6
:10878000374B384C99508932FF3299580C40802130
:10879000C903214399504946196041465850995898
:1087A000314C0C408021C901214399506146186029
:1087B000A3202E4B2E4AC0005A502E4A2E495A5002
:1087C0002E4919502E481A50A4222E48D2009850F3
:1087D0002D4A2E481A50043019502D4910305A5045
:1087E000A6222C49D20099502B4A2C495A502C4988
:1087F00019502C481A502C4A0C30DA512B4A9A51F5
:108800001950FF215A512A4A002099500023294A21
:10881000FA3902F0CDFF00280FD10121264A27485E
:1088200003F038F800222649264803F049F83CBCFA
:1088300090469946A246AB46F8BD0022002102F0C0
:1088400071FCEAE798220020BC22002000A0004032
:1088500044050000C40900004C05000000900040E1
:1088600000E100E0FFFF00FFFF00FFFF00F001401C
:108870004091004000600040140500004C91004011
:108880001C050000449100400460004024050000E5
:108890002C05000040A100400860004034050000A5
:1088A0004CA100403C05000044A100400C60004089
:1088B00004050000D020002095850100241B020043
:1088C000660600009C220020F0B5DE4657464E4664
:1088D0004546E0B583B00192002A1FDD1C4B92464D
:1088E00099461C4B0C0098461B4B1C4F9B468A44D8
:1088F0004B461B782678002B25D180230425FD507C
:1089000043461B78002B11D0002342461370144AB3
:10891000144B0134D6503D605445E9D1019803B061
:108920003CBC90469946A246AB46F0BD3100584645
:10893000013400F0C7FD3D605445EFD04B461B7835
:108940002678002BD9D03100074800F0BBFDD4E7D2
:1089500000260020642000201C27002000E100E009
:10896000002000401C05000034290020842210B59E
:10897000194B52009958002916D18E23164C5B00D2
:10898000E258002A09D000221448E250183BC35A8A
:10899000002B1CD10122124B1A7092220E4B520056
:1089A000995800290AD110BD00219950A322D20064
:1089B00099580C48C9B200F085FDDEE700219950B6
:1089C0009022D2009958084807F0BAFEEBE700F071
:1089D00089FD064BE050E0E7002000401C27002006
:1089E0006420002014260020281B02001C05000023
:1089F00010B51E4800F05CFD1D4800F059FDA02395
:108A0000E7220321DB05D200995000210E20083215
:108A10009950184B184AC0249850184A0230985060
:108A2000174A1848A4009850A0200422C0001A50E9
:108A30008420400019501430195001319960196098
:108A4000C2211E388900FF385850A1200439800007
:108A500058500D4B8539FF395A5019590B48084069
:108A6000C0210904014319511A6010BD14260020C9
:108A70001C270020002000400C0500001405000009
:108A80002405000000E0D70100E100E0FFFF00FF47
:108A9000F0B54746CE46984680B5002A48D0B12367
:108AA0000027244E244D254CDB002F702770F050FA
:108AB000234831508021890077500121B160287806
:108AC0000028FCD00021297080211A488900012A41
:108AD00025D00125455001239946802301211548C1
:108AE0009B00016041469846FF3BA325FF3B0026C3
:108AF0009C46ED002378002BFCD026704359013AA8
:108B0000D2B20B70012A0DD04B460362002A01D06D
:108B10000131EFE700200CBC90469946F0BD0225DC
:108B20004550D8E7434667460131C7500262E1E746
:108B30000120F0E700300040BE220020BD220020CE
:108B40001C050000F0B5002A27D0B1270026144DDF
:108B5000144CFF002670E851802080002E501248EF
:108B600029500121A96021780029FCD00021002092
:108B7000217019009A180A4E0B4DD2B20B7873511E
:108B80002378002BFCD00131CBB220709A42F5D172
:108B900001220020024B5A61F0BD0120FCE7C046D3
:108BA00000300040BE2200201C050000F8B58423E0
:108BB000164A5B00D158002904D00021D15001226F
:108BC000134B1A708E23114A5B00D158002904D030
:108BD0000021D15001220F4B1A7092250B4C6D00D1
:108BE0006359002B00D1F8BD0B4EA759FFF768FD64
:108BF000B123DB000200E3583900084807F0A0FD6C
:108C00000323A35100236351EDE7C0460030004029
:108C1000BD220020BE220020C40400003C1B020034
:108C2000A023E2211A4ADB05C90010B55A500839C1
:108C30005A500421174B053AFF3A9950164A023907
:108C400099500022CD200731FF315A5014315A502B
:108C50001249C0045850C121A120890080005850F9
:108C60000539FF395A50A022FC39D200FF399950FA
:108C7000C0230820C024C021094A5B00D050A400B2
:108C8000135909061B021B0A0B431351106010BD38
:108C90000C060000003000400C0500002405000018
:108CA00000E100E08022044BD2009A58002A01D152
:108CB00001321A607047C0460070004080220021D7
:108CC000054B52009950A122D2009A58D3009B1A0A
:108CD000024A13807047C0460070004022280020DE
:108CE0000A4B0B4A0B49C0209950A0210122C90010
:108CF0005A50FD39FF395A50074A000653581B0293
:108D00001B0A0343535080231360704700700040D8
:108D1000040500000410000000E100E0F0B5C646C4
:108D200000B55F4C82B02578012D16D0022D52D0AF
:108D3000002D3CD032200138C046C046C046C04657
:108D4000C046C046C046C046C046C046C046C046F3
:108D5000F1D102B004BC9046F0BDFFF7B1FC514E1A
:108D60003368C01A504B9842E4D9504F03223B005D
:108D700000217720FFF78CFE7A783B7812021B04E3
:108D80001343BA7877211343494A58201360B1221C
:108D9000484BD200995002228A31FF315A5046493D
:108DA00058509D602270FFF78BFC3060C2E7B12203
:108DB0007721404BD200995080227539920099500A
:108DC0003D4A4631995001229A602270FFF778FCA3
:108DD000344B1860AEE7FFF773FC324B1B68C01AC8
:108DE000314B984200D8A5E7304D03222B000021DB
:108DF0007720FFF74DFE6A782B7812021B0413438D
:108E0000AA782E4D13436A89288912029B1A984624
:108E10001A000021002304F01FFF4E06CB11002191
:108E2000C2093243AE88300412184B4100920193BC
:108E30000021E8884246002304F00EFF0E06020AD5
:108E400032436E880B12F003002116001F004246C9
:108E500036184F410023A889002104F0FDFEFA23B3
:108E6000DB009C464902C00D154B08436044186066
:108E70000F4B3200186800213B0004F0EDFECD02DC
:108E8000420D4B152A4300980199121A8B4111008B
:108E90005B04CA0B1A430B4B1A600023237049E78B
:108EA000D0220020CC2200200F270000C422002066
:108EB000C0220020003000401C050000D422002009
:108EC000242800202828002070B5A024094E0A4D2F
:108ED0002B00022221007720FFF7DAFD2A786B7839
:108EE000120202341343E4B233800236B02CEFD1C5
:108EF00070BDC046D4220020C8220020F0B5DE4656
:108F000057464E4645464023E0B5002589B006AC9D
:108F10006370784B21006380774B2570A380774B7B
:108F20000622981D9A4607F001FCA0220327A37889
:108F3000D2059846C133FF339B009F50E378A126AA
:108F40009946C133FF339B009F502079414603006F
:108F5000C133FF339B009D506379F6009B46C133BC
:108F6000FF339B009F50664BB44699514E4665496E
:108F70005E508846043158500120594606008E4004
:108F800031006646915161785F4E09069951247807
:108F90005E4966465C508421A0244900E4005D508F
:108FA0001851E024E4001751594C175164461051F0
:108FB0008024A40194515646564C2360F77A4646C5
:108FC000B8409051544A5D5050359D505A58002A2F
:108FD000FCD0A322D2009A58A0250192A122ED052F
:108FE000D200A850019A01320192464AA8500025A9
:108FF0005D500121484A99509D508422404B5200B7
:1090000099580029FCD000219950A322D2009B58E6
:10901000842202933A4B520099580029FCD0A32194
:10902000C9005958A0250291A121ED05C900685039
:109030000299013102913349685000219950364A12
:109040000631995003312E4BFF315A58002AFCD07B
:10905000A322D2009A58A0250392A122ED05D200A6
:10906000A850039A842701320392264A7F00A85011
:1090700000225A506021284A214D9950EB59002B6B
:10908000FCD0A323DB00EB580493A023DB05984618
:10909000A1234246DB00D050049B6420013304939B
:1090A000FFF7FAF8534601212560DB7A42469940E2
:1090B000144B8420D15000230622EB51164B400064
:1090C000EA500F4B1A58002AFCD0A322D2009B581A
:1090D000A0220593A1230120D205DB00D150059BDE
:1090E0000133059309B03CBC90469946A246AB4675
:1090F000F0BDC0460B09000012110000E82200205C
:10910000004000400C05000024050000540500004C
:1091100034070000E42200201C05000076DF7047C1
:109120007ADF70477CDF70477FDF7047A9DF7047C9
:1091300060DF70472EDF704732DF704733DF7047E4
:109140004CDF7047A022802110B5044BD2054904A2
:10915000D1500022002101F0E5FF10BD0C050000F8
:10916000F8B50E00151E08D00024044F315D3800FC
:10917000013400F0A7F9AC42F8D3F8BD2C28002048
:1091800010B5040003F086FB21001F4803F0DEFB4E
:109190002388132B23D012D8102B2AD0112B0AD1BD
:1091A000A022A1238021D205DB004905D150012254
:1091B000164B52421A80200003F028FA10BD522BA1
:1091C000F9D1124B0022188800210023FFF7AEFFCF
:1091D0000028F0D00022002101F0A4FFEBE70B4BA8
:1091E0000022188885210023FFF79EFF0028E2D087
:1091F000F0E7A0228021064BD2054905D150A28874
:10920000024B1A80D7E7C0463C2300206C20002088
:109210000C05000010B50378002B00D010BDA02273
:109220008021084BC903D205D150074B3B21188838
:10923000FFF774FF0028F1D00022002101F072FF37
:10924000ECE7C0460C0500006C20002001210A4A12
:1092500013784B401370A023084ADB059A58520537
:1092600005D4A1228021D200C900995070478021E5
:10927000034AC9009950F9E732290020040500008B
:109280000C05000000B57B48A9B000F011F97A4840
:1092900000F00EF9002348220820784903F0E4FC8E
:1092A000002800D0B9E0082200211AA8FEF7A2FF8A
:1092B00068216B4601225B181B7893436A4652185B
:1092C00010001370FFF734FF002800D0CDE06C4889
:1092D00003F0EEFC002800D0C2E00022694B15200C
:1092E0001A70FFF729FF01211520FFF727FF15202E
:1092F000FFF720FF01210320FFF722FF11236A4619
:109300001372614ABF33D2582F33604913401AA8F1
:109310005F4A07F02FFA1AA807F04CFA1AA982B28E
:1093200002A8FFF7FFFE002800D094E008220021E9
:109330000CA8FEF75FFF574B0CA80C93C8235B04E7
:109340000D93FFF7EDFE002800D07FE000210422FE
:109350001AA8FEF74FFF504B50481AA91A9303F072
:1093600029FB002800D06CE0382200210CA8FEF771
:1093700041FF30216A46022352181370C0236A4607
:10938000DB005386002138221AA8FEF733FF78212C
:109390006A46012352181380414B2422002102A85F
:1093A0001F93FEF727FF01236A461375402200230F
:1093B00006920793002302AA00931AA90CA803F0AF
:1093C00063F8002838D11C2200211AA8FEF712FFEA
:1093D000344A74201B92F022694612031C92052223
:1093E00009180A7076216A460023521813806A46CB
:1093F00002311A935218013313702B4B1AA81F9382
:109400002A4B209303F00AFA002810D1032003F01E
:10941000DFF8002806D129B000BD0022002101F0AC
:1094200081FE40E70022002101F07CFEF3E70022EC
:10943000002101F077FEE9E70022002101F072FE31
:10944000C1E70022002101F06DFE8DE7002200211E
:1094500001F068FE7AE70022002101F063FE65E773
:109460000022002101F05EFE37E70022002101F01A
:1094700059FE2CE72C28002034290020F42200205B
:10948000819101003229002000100010801B020091
:10949000741B020006000600619101003C230020BD
:1094A00068200020CD0C00001592010045910100BC
:1094B00080220023FF215200835202328152023265
:1094C0008352704710B58124FF236400025B013290
:1094D0001340822203535200C154835A01338352F2
:1094E00010BDC04610B58024FF2103006400025B5C
:1094F000805C01320A401A5305315A5A013A5A52D5
:1095000010BDC046242330B51E4C83B0E35C002B55
:1095100016D0002812D16B46D87123680122597CDD
:10952000636818786B460733FFF70CFB002826D1D9
:109530006B460020DB79637403B030BD0220EAE79C
:10954000A37A002B1BD000280FD16B46DD1DD871EC
:1095500023680122597C636818782B00FFF7F2FA20
:1095600000280CD12B786374E6E7637C002B04D1D0
:109570006B46DD1D01232B70EAE70020DCE70120AC
:109580004042D9E77020002010B55E4C82B0A37A2B
:10959000002B00D1B2E000236A46D3712368012278
:1095A000597C636818786B460733FFF7CBFA0028BD
:1095B00000D0A3E0236801225979636818786B46CC
:1095C0000733FFF7BFFA002800D097E02368012295
:1095D0001979636818786B460733FFF7B3FA0028E8
:1095E00000D08BE02423E35C002B42D00C236A469E
:1095F000D371236801221979636818786B460733A1
:10960000FFF7A0FA002800D078E03230FEF744FEE1
:10961000C0236A46D371A37ADB0701D5E023D37157
:10962000236801221979636818786B460733FFF7BE
:1096300089FA002862D1637C002B00D002236A469D
:10964000D37123680122597C636818786B4607330D
:10965000FFF778FA002851D16B46D87123680122B0
:109660005979636818786B460733FFF76BFA404205
:1096700042E004236A46D3712368012219796368A2
:1096800018786B460733FFF75DFA002836D1A27CC5
:109690004023002A06D1A27A3F3B13401F22013B00
:1096A000934360336A46D371236801221979636852
:1096B00018786B460733FFF745FA00281ED1323081
:1096C000FEF7EAFD637C5A1E93416A46D371236814
:1096D0000122597C636818786B460733FFF732FA2A
:1096E00000280BD12300226810335179626810786A
:1096F0000122FFF727FA404202B010BD012040428C
:10970000FAE7C0467020002070B5060082B0282815
:1097100000D9BCE02323624C01ADE35C00282BD1CF
:10972000002B18D02870A37C8022002B02D00223AB
:1097300002322B702223E35C002B00D07AE02368F6
:109740000122D97D636818782B00FFF7FBF9002808
:1097500001D12323E054E023DB002B802368022285
:10976000597D636818782B00FFF7ECF9002800D0CA
:109770008DE0207502B070BD012B19D030232B7005
:10978000A37CB022002B02D0322302322B70222382
:10979000E35C002B4CD123680122D97D63681878E3
:1097A0002B00FFF7CFF9002802D123230122E25436
:1097B00020232B70012E5BD0052E4CD9142E3BD9C3
:1097C00003236B70A37A002B5FD004236A46D37007
:1097D000E37A042B59D023680122997863681878BA
:1097E0006B460333FFF7AEF9002853D16B460722CF
:1097F000DB78E3726B789B011343DBB26B702368F9
:109800000222597D636818782B00FFF79BF9002826
:109810003DD10823A372073B237520732333E35CF8
:10982000002B16D101302374FFF76CFE0020A1E756
:109830002A70B0E72A7082E702236B70A37A002BAC
:1098400005D005236A46D370E37A052BC3D187235D
:10985000D4E700208EE701236B70A37A002B05D09C
:1098600006236A46D370E37A062BB4D14723C5E7B3
:1098700000236B70A37A002B05D006236A46D370B1
:10988000E37A062BA7D10723B8E7C723B6E7012061
:1098900040426FE707236A7892011343DBB2ADE7DA
:1098A0007020002010B5174902004B7A022B20D0FF
:1098B0000AD8002B15D004230370CB7C0824002089
:1098C000002B00D0147010BD032B07D110230370A0
:1098D000CB7C20240020002BF5D0F3E70120404270
:1098E000F1E702230370CB7C04240020002BEAD094
:1098F000E8E708230370CB7C10240020002BE2D083
:10990000E0E7C0467020002030B5204C83B0A37A39
:10991000002B37D06B46DD1DBB2815D861281BD91D
:10992000022302222B70E37A934213D02368012290
:109930009978636818782B00FFF704F9002821D183
:109940002B78E37203B030BD012301222B70E37A40
:109950009342EBD10020F5E7292805D8132807D931
:10996000042304222B70DEE7032303222B70DAE7A3
:10997000092803D9052305222B70D4E706230622E4
:109980002B70D0E701204042DCE7C0467020002069
:1099900070B53A4C0500A37A82B0002B6AD024231C
:1099A000E35C002B66D1227D01AE002A2DD0421E41
:1099B000272A58D92322A25C01AE002A17D033707F
:1099C000A27C8023002A02D07E3B33708033222287
:1099D000A25C002A4CD123680122D97D63681878E3
:1099E0003300FFF7AFF8002801D12323E054E02330
:1099F000DB00338023680222597D636818783300C6
:109A0000FFF7A0F8002800D12075FA23291C9B003D
:109A10009D4223D88BB2042B1ED3FA2089B280003A
:109A200003F0B6FF2368013830705978636801226B
:109A300018783300FFF786F800281BD1FA20317818
:109A40008000013103F0A4FF80B2E0814008FFF7FD
:109A50005BFF002002B070BD0421DEE7191C8BB251
:109A6000042BDAD2F8E7C0B2FFF74EFE0020F1E790
:109A70003370B0E701204042ECE7C0467020002080
:109A8000242370B5274D82B0EB5C002B3ED1AC7A1D
:109A9000002C40D00133984304402E7C2C74241AAF
:109AA000621E94416442002816D12A7D002A2FD0DC
:109AB0006A7C002A27D16A46D3712B680122597C1F
:109AC0006B6818786B460733FFF73CF800281AD10B
:109AD0006B46DB796B7416E06A7C002A0FD16A460C
:109AE000D3712B680122597C6B6818786B46073359
:109AF000FFF728F8002802D16B46DB796B74FFF77B
:109B000043FD00280AD1200002B070BD0024FAE70E
:109B1000FFF7F8FCF7E701246442F4E701242E7410
:109B20006442F0E7702000207023F0B5CE4647462F
:109B30001A0080B5040083B00240034269D06B462E
:109B40009E1D01233370474D01222B68597D6B68A0
:109B500018783300FEF7F6FF002800D07CE04022A2
:109B60003378307093432B73224266D002203B231C
:109B70003A273922012180469C46383B99463533A5
:109B8000A00604D443466246337049463B00E006D3
:109B900001D413003170220700D433702B680122E6
:109BA000997D6B6818783300FEF7CCFF002853D1FD
:109BB000082322009A4320D02323EB5C002B1CD0E7
:109BC0006B46D871AB7C8022002B03D06A460223FF
:109BD000D37182222223EB5C002B01D06B46DA7119
:109BE0002B680122D97D6B6818786B460733FEF726
:109BF000A9FF002801D12323E85400233220AC72AE
:109C00002B75FEF749FB002003B00CBC904699462B
:109C1000F0BD6B469E1D00281CD14027114D3770AA
:109C20002B680122597D6B6818783300FEF78AFF94
:109C3000002811D13378BB432B73042306203370E3
:109C40003B339C46383B99463E273D2205218046C2
:109C5000353395E7327076E700230120AB7240423E
:109C6000D2E7C04670200020802370B5744C84B0C9
:109C700002AD2B7023680122597D636818782B0090
:109C8000FEF760FF061E00D0C7E06420FEF704FB6D
:109C900023682E70597D6368012218782B00FEF727
:109CA00051FF002800D0B8E070232B7023680122F8
:109CB000D97E636818782B00FEF744FF002800D097
:109CC000AEE023680622597E636818782B00FEF701
:109CD000DFFE002800D0A0E004216B7901269B0064
:109CE00019400223EA785200134019436B7833403D
:109CF000194300D179E0012900D174E0022900D094
:109D000091E00023E37400232B7023680122D97EA5
:109D1000636818782B00FEF715FF051E00D07FE062
:109D20000123A08220005B42A360E38123740133FE
:109D3000FF33A374FE3B63840C220021163023738F
:109D4000FEF758FAA37A6562002B66D06B46DD1DDC
:109D500018232B70237A032B0FD0236801229979C3
:109D6000636818782B00FEF7EDFE002855D12B789C
:109D7000DB082372A37A002B4FD000232B70637A69
:109D8000002B0FD023680122D979636818782B0043
:109D9000FEF7D8FE002840D12B78DB086372A37A47
:109DA000002B3AD005232B70E37A052B0BD02368C8
:109DB00001229978636818782B00FEF7C3FE00280B
:109DC0002BD12B78E372FA208000FFF7E1FD002809
:109DD00023D1FFF755FE041E1FD10020FFF7A4FE7C
:109DE000200004B070BDE1748DE723680122D978AA
:109DF000636818782B00FEF74BFE00280DD10F2268
:109E000011002B7819401A4213D0042900D078E7AA
:109E10000C4806F095FCE67475E701246442DFE720
:109E200003246442DCE70124074806F089FC64420D
:109E3000D6E70124054806F083FC6442D0E7C0461B
:109E400070200020001C0200881B0200B01B0200D2
:109E5000F0B54E46DE4657464546E0B51E00242383
:109E600091B0944C05900B91E35C002B00D018E16D
:109E70003370A37A002B00D113E1227C002A00D199
:109E80000FE14023190011400491134200D0DEE09D
:109E90000A239B460393063B994606339A46063BA4
:109EA000984604339C460293023B0A93099300238D
:109EB00004270225022008210893079306330693FE
:109EC000043B0193930611D463460393029BA94676
:109ED0009B460A9B07009C46099B8A460293019B6E
:109EE000089D9846049B079806990193D30608D4C9
:109EF00063460393029BA9469B46019B07008A4643
:109F00009846130703D5039B5F469946D0462368BE
:109F10000DAD197B6368022218782B00FEF7B8FD9F
:109F2000002800D0BDE02B786A781B021A439246C5
:109F3000BA4200D283E0626853885B0853450ED270
:109F400023681078D97C01222B00FEF7A1FD0028A0
:109F500000D0A6E02B78DB0600D5A5E06268236878
:109F60001078597B42462B00FEF792FD834600286D
:109F700000D096E04946504603F00AFD1A9B01388E
:109F800018705B4633704346002B58D0237C1A0769
:109F900000D479E02A786B780B99120213430B8076
:109FA000AA78EB78120213434B802A796B7912025C
:109FB000134308228B80337813433370062F3ED02F
:109FC0000B2206219246013A91469346013A944665
:109FD000013A9046237C0192013A580612D56B5CF7
:109FE000AA5C1B021343059A138040223378134363
:109FF0003370B84523D048466246D846D446237CC1
:10A000000199019098060ED5695CAB5C0902059A2E
:10A010000B4353802022337813433370B8450ED05E
:10A020006246237C0199DB0609D5695CAB5C0902B9
:10A03000059A0B439380102233781343337000202A
:10A0400011B03CBC90469946A246AB46F0BD343BAD
:10A050009B460393063B994606339A46063B984631
:10A0600004339C460293023B0A930993063B0893F0
:10A07000079306330693043B0193023B062704250E
:10A0800004200A2104931DE705229246013A9146D5
:10A090009346013A9446013A904601920021013AD2
:10A0A0009BE701204042CBE7FFF76EFA02204042D7
:10A0B000C6E7C04670200020F0B5C646242300B590
:10A0C000264C0500E35C8846170082B0002B3AD08E
:10A0D000A37A002B37D023680222197B6368187893
:10A0E00001ABFEF7D5FC00282DD16B461E795B79BC
:10A0F00036021E43AE4229D3606843885B08B342F0
:10A100000DD223680122D97C007801ABFEF7C0FC98
:10A11000002818D16B461B79DB061AD460682368C7
:10A120000078597BEAB24346FEF7B2FC00280AD118
:10A130002900300003F0A2FB01383870002002B083
:10A1400004BC9046F0BD01204042F8E73870013869
:10A15000F5E7FFF719FA02204042F0E770200020EF
:10A1600070B5394C0600A37C82B0834260D06B4648
:10A17000DD1D236801221979636818782B00002EF1
:10A1800030D0FEF785FC00285AD120222B7893434B
:10A190002B7023681F3A1979636818782B00FEF733
:10A1A000D1FC00284CD10330FEF776F802232B7047
:10A1B0002033E25C1033002A02D050332B7030334E
:10A1C0002322A25C002A39D123680122D97D636849
:10A1D00018782B00FEF7B6FC002831D10020A674B9
:10A1E00002B070BDFEF754FC002829D1A37ADB072A
:10A1F00020D420222B7893432B70236801221979D5
:10A20000636818782B00FEF79DFC002818D10330F6
:10A21000FEF742F82223E35C3022002B01D0B0226B
:10A2200080232B702323E35C002BCDD02A70CBE757
:10A230000020D5E720222B781343DDE72B70C3E7FE
:10A2400001204042CCE7C046702000202223024A71
:10A25000D05400207047C04670200020232370B5E2
:10A26000184C0500E35C82B0834226D000281FD141
:10A2700000228221802302206E46F271A27C002AF5
:10A2800001D00B00F0712222A25C002A01D06A46A4
:10A29000D37123680122D97D636818786B46073330
:10A2A000FEF750FC00280AD12323E55402B070BD0C
:10A2B000B221B02332203022DEE70020F6E7012071
:10A2C0004042F3E77020002070B50C00160082B009
:10A2D000002A1FD0114DAB7A002B1BD042BA01AB24
:10A2E0001A806A68C0B240185189884212DC296815
:10A2F0001078C97E0222FEF725FC00280AD12B68BF
:10A30000E2B2197E6B6818783300FEF71BFC4042FE
:10A3100002B070BD01204042FAE7C0467020002024
:10A32000F0B5DE46454657464E46E0B58BB0039342
:10A330002523364D00910292EB5C8346002B44D1DD
:10A34000002942D0002405AF00282DD146E0AB7A89
:10A35000002B3AD063BA3B8033041B0C98466A68E2
:10A360000197E3B2518943448B422EDC2B6810786D
:10A37000D97E02223B00FEF7E5FB002825D12B68A1
:10A38000F2B2197E6B68187806ABFEF781FB0028E5
:10A390001BD14246504606A906F0BAF9002832D130
:10A3A0004C44A4B2A3451AD95B461E1B102E00DDF7
:10A3B0001026B3B29946009B49469A46A24452469B
:10A3C0002000FFF781FF0028C1D0012040420BB0E0
:10A3D0003CBC90469946A246AB46F0BD0197029B15
:10A3E0005ABA019B1A802A68517F6A681078022243
:10A3F000FEF7A8FB0028E8D125230122EA54039B9D
:10A400000020EB84E3E702204042E0E770200020D8
:10A4100070B524261F4D0400AB5D82B0834234D05A
:10A42000002820D02523EB5C002B30D00020FFF744
:10A4300069F80020FFF794FEE88CFFF7A9FA6B4655
:10A440000022DA716A682321073310780122FEF7AF
:10A4500079FB01230120AB55FFF754F8FFF794F87F
:10A46000002002B070BD0020FFF74CF86B462A7C3C
:10A4700007331A706A68232110780122FEF762FB05
:10A48000AC55FFF781F80020EBE70020E9E7012059
:10A490004042E6E770200020802210B5C82303491F
:10A4A0000348D200FFF73CFF10BDC046AC1C0200C1
:10A4B000F60B0000F0B587B06D463C4B02A91A8838
:10A4C00004000A809B7803AA8B70394B6F4618886A
:10A4D00010809B789370374B188828829B78AB74D8
:10A4E000354B1888A8829B78AB7503231E00264045
:10A4F000885D2870E00818400D5C7D70A5092B4030
:10A50000C95C01ADB970915DD35C2970115C6A467C
:10A5100069702A480321AB70FFF7D6FE002841D1AD
:10A520002A0003212648FFF7CFFE00283AD1032254
:10A5300004A9684606F0FAF80322280005A906F0E7
:10A54000F5F8630706D501213A782B780A430B43C7
:10A550003A702B70A30607D56B4601215A780A433F
:10A560005A706B780B436B70E30512D488206A46EF
:10A570000321C000FFF7A8FE002813D12A00032101
:10A580001048FFF7A1FE00280CD10F4B1C8107B02B
:10A59000F0BD6B4601219A780A439A70AB780B4361
:10A5A000AB70E3E701204042F1E7C046741C0200B3
:10A5B000781C02007C1C0200801C020026040000A3
:10A5C0002A040000310400005823002070B586B032
:10A5D00003AC2200124B050043CB43C2C82D1BD84D
:10A5E00000236A4629001371C82003F0D1F96B4695
:10A5F0000138587102210B4801AAFFF765FE0028B7
:10A600000AD122000C210848FFF75EFE002803D182
:10A61000064B9D8106B070BD01204042FAE7C0465E
:10A62000841C020016020000C10A0000582300200A
:10A6300070B5040082B0080063075ED0C823DB0059
:10A6400099425AD804F0F6F9504903F0E1FC6B4600
:10A65000DE1C051C3000FFF725F93378082B00D1EC
:10A6600084E021D8022B00D170E0042B45D18C214D
:10A67000281CC90503F096FE03F016FB444986B278
:10A68000281C03F08FFE03F00FFB80B26B4676BAF6
:10A6900040BA9E80D880E3071ED4A30730D4630756
:10A6A00041D4002002B070BD102B26D18A21281C75
:10A6B000C90503F077FE03F0F7FA364986B2281C85
:10A6C00003F070FE03F0F0FA6B4680B276BA40BA3F
:10A6D0009E80D880E307E0D5EA20022101AA40004D
:10A6E000FFF7F2FD002808D16B46253002219A1DA4
:10A6F000FF30FFF7E9FD0028CFD001204042D1E72D
:10A70000EC20022101AA4000FFF7DEFD0028F4D171
:10A710006B46293002219A1DFF30FFF7D5FD002836
:10A72000EBD16307BDD5EE20022101AA4000FFF75F
:10A73000CBFD0028E1D16B462D309A1D0221FF3060
:10A74000FFF7C2FD431E98414042ABE78D21281C14
:10A75000C90503F027FE03F0A7FA0F4986B2281CAB
:10A7600003F020FE03F0A0FA80B28FE78B21281CB3
:10A77000C90503F017FE03F097FA084986B2281CB2
:10A7800003F010FE03F090FA80B27FE70000484328
:10A790000000C0450000C0440000404600004045A5
:10A7A000F0B5D6464F464646C0B586B08D4B03AC95
:10A7B00005002200042168200393FFF785FD402354
:10A7C0001900A3222940894622702B4200D101E1C1
:10A7D00080336370844B6380C0232A005B001A407F
:10A7E00090461D4200D1F0E0804BA380C623A371A8
:10A7F000A3230327E3717E4B22000A2123817D4896
:10A800002F40FFF761FD7B427B415A42B823134042
:10A81000203322000121784823706E46FFF754FD53
:10A82000AB0600D4CFE0754B320003CB03C29720B8
:10A830001B7809211370C0003200FFF745FD434625
:10A84000002B09D0EB0500D5C8E06D4B0393220027
:10A8500004216C48FFF738FDEB0700D4AAE08B20F9
:10A86000F8232200012100012370FFF72DFDFA21BA
:10A870000720FFF7DDFEA4203F2332000121400026
:10A880003370FFF721FD5020002332000121FF30FB
:10A890003370FFF719FDA023EF205B013200022186
:10A8A00033804000FFF710FDC823ED20DB013200AC
:10A8B000022133804000FFF707FDAE20524B3200EB
:10A8C000042140000093FFF7FFFC8023AD201B0113
:10A8D0003200022133804000FFF7F6FC8023AC20D9
:10A8E0009B003200022133804000FFF7EDFCAB07F4
:10A8F000DB0FD8332200012144482370FFF7E4FC2A
:10A900006B0751D5424B0093320004214148FFF7B9
:10A91000DBFCFEF739FEEB0640D53F4B00933200DF
:10A9200004213E48FFF7D0FCFEF72EFE08233C4CE6
:10A930002B436381FEF728FE4B46002B21D10620D6
:10A940000A26142210218146A3731A339C46043B25
:10A950009A46123B4046002804D04B466246A373F9
:10A96000514633001420284201D01300A173002F58
:10A9700000D0A373002006B01CBC90469946A246A6
:10A98000F0BD06230C20A3731A339C46043B9A4661
:10A9900010261A2216218146123BDBE70422A3214E
:10A9A0003000FDF727FCBAE704228B213000FDF7C9
:10A9B00021FCA9E78B20D82322000121000123706C
:10A9C000FFF782FC93E7174B2EE7094BA380A323E5
:10A9D000A3710DE7064B62706380FDE6124B039393
:10A9E00035E7C04602CAE309C8C2FFFFC4CCFFFF77
:10A9F000A3A3FFFFA70A0000B60A0000941C0200F0
:10AA0000B080B490A20A0000008EF9903D070000CB
:10AA1000C0C2C4C6980A0000202830389E0A000030
:10AA200058230020A01C0200B28BB69BF0B54E4606
:10AA30004546DE4657460023E0B591B01A9C050016
:10AA400023807F4B0E00987B914608A91B9AFFF745
:10AA500033FB03B29846181E238079D11422784B19
:10AA60005B891A4200D07AE00327BC46013FB84612
:10AA7000013FB94600270C2200210420BA46079264
:10AA8000013A0692013A0592013A0492013A039280
:10AA9000013A0292013A8B460192009205315F061B
:10AAA0002DD5524608AFBA5C120292463A004F4684
:10AAB000D25D574617433780474608AAD25D67469E
:10AAC0001202904608AAD25D4746174308AA515C75
:10AAD000105C009A00029346079A08430092049A79
:10AAE000B0809446039A08209046029A7780914657
:10AAF000019A218892460143218005980699C02633
:10AB00007600334221D0564608AA965D320292461C
:10AB10004E4608AA965D524616432E80464608AA1F
:10AB2000965D32029046664608AA965D42461643F6
:10AB300008AA105C515C00020143009A7020934601
:10AB40006E80A9802188014321809B0753D100207A
:10AB500011B03CBC90469946A246AB46F0BD494672
:10AB60004846089A12BA0A600999121409BA416053
:10AB70000A98091400BA84464846674687604F46DB
:10AB800089466146524309148C4611004A46524395
:10AB90008918624652438A18F12109068C468021A1
:10ABA0000B98890400BAF8600014404312186244FC
:10ABB0008A423ED88022218852000A4322801C22E9
:10ABC0000792013A0692013A0592013A0492013A3B
:10ABD0000392013A0292013A01920092063A934698
:10ABE00003329446013A9046013A9146013A1521C2
:10ABF0001420924653E708AB9C465C466444637855
:10AC0000E578DA070BD50E4A1268002A07D007202C
:10AC10000100EB08294018400131904763781B0779
:10AC200095D5074B5B68002B91D0A8099847002069
:10AC30008EE7FEF7A9FC434601202380404287E7C8
:10AC4000582300200023F0B5C356002B11DD382314
:10AC500020249C4608211025282730260023032283
:10AC60008256002A17DD06228256002A25DD98B278
:10AC7000F0BD002B4ED10123C356002B27DD03224C
:10AC8000392382569C462124092111252927312662
:10AC9000383B002AE7DC002A35D1042282560B001B
:10ACA000002AE0DC5AD1052282562B00002ADADC89
:10ACB0003300002AD7D16346D5E7002A25D10722E1
:10ACC0008256002A13DD402003431BB2CFE7002B3E
:10ACD00036D10223C356002B29DC46D13F339C4694
:10ACE00027240F2117252F273726383BB7E7002ABF
:10ACF0002FD108228256002A15DC31D0C020400016
:10AD000003431BB2B3E72300ADE7802040000343B9
:10AD10001BB2ACE73C2324249C460C2114252C2791
:10AD20003426383B9BE7802003431BB29FE73A233E
:10AD300022249C460A2112252A273226383B8EE7F8
:10AD40003D2325249C460D2115252D273526383BEE
:10AD500085E7A020400003431BB288E73B0082E761
:10AD6000E020400003431BB281E73E2326249C469B
:10AD70000E2116252E273626383B70E7F0B5CE4635
:10AD8000474680B5060083B0006803F00DFEC2217F
:10AD9000890503F007FB071C706803F005FEC2215C
:10ADA000890503F0FFFA041CB06803F0FDFDC22121
:10ADB000890503F0F7FA051CF06803F0F5FDC221E0
:10ADC000890503F0EFFA291C061C281C03F0EAFA97
:10ADD0008046211C201C03F0E5FA414602F07CFF6E
:10ADE000011C02F079FF011CFE20800503F0F4FB3A
:10ADF00005F01EFC00900191211C381C03F0D2FAD2
:10AE0000311C8146281C03F0CDFA011C484602F093
:10AE100063FF011C02F060FF05F00AFC009A019B31
:10AE200001F0FEFF0022364B04F0B0FD05F0CAFB36
:10AE3000344B291C1880381C03F0B4FA311C8146AD
:10AE4000201C03F0AFFA011C484603F0C5FB011CAF
:10AE500002F042FF814605F0EBFB0090019148466D
:10AE600003F082FD05F04AFC002843DD009A019BB7
:10AE70002548264901F06AFF0022214B04F086FD97
:10AE800005F0A0FB224B311C1880301C03F08AFA1D
:10AE9000414602F021FF011C02F01EFF011CFE20B2
:10AEA000800503F099FB05F0C3FB00900191311C74
:10AEB000381C03F077FA291C061C201C03F072FAD8
:10AEC000011C301C02F008FF011C02F005FF05F018
:10AED000AFFB009A019B01F0A3FF0022084B04F096
:10AEE00055FD05F06FFB0B4B188003B00CBC904672
:10AEF0009946F0BD0098019901F034FFBCE7C046C7
:10AF0000005FC440422A0020182D4454FB21F93F21
:10AF1000442A00203C2A002010B52A4B8CB01B7814
:10AF200006AC002B21D0284B210001930E236B444B
:10AF3000009308AA002304A8FFF778FD41B2002976
:10AF400032D16B46DB89DA0536D470221A421ED123
:10AF50001B0708D522881D4B1A8062881C4B1A805B
:10AF6000A2881C4B1A800CB010BD174B2100009317
:10AF7000002208AB04A8FEF76BFF41B2002917D1ED
:10AF800020226B469B181B7850321A42E0D06A464A
:10AF9000118A114A11806A46518A104A11806A4604
:10AFA000918A0F4A1180D3E70E4805F0C9FBDAE712
:10AFB0000D4805F0C5FBD6E708A8FFF7DFFE6B4696
:10AFC000DB89C2E73F2A00203E2A0020462A0020D3
:10AFD0003A2A0020402A00204A2A0020482A00203D
:10AFE0004C2A0020A4280200C8280200A022A22384
:10AFF000D205DB00D3589B0605D4044B1878431EBA
:10B000009841C0B270470120FCE7C0463E2A0020AC
:10B0100030B5374B83B01870040000200D00FEF7E8
:10B0200023FE0100334805F08BFB7820FEF77CFD02
:10B030000100314805F084FB7820FEF721FD010076
:10B040002E4805F07DFB0020FFF700F90120FFF7F7
:10B0500005F9002C2CD0FFF71FFA0100284805F055
:10B060006FFB2848FFF7EEFDFFF724FA01002648A2
:10B0700005F066FBD120FFF793FB0100234805F0A4
:10B080005FFB6420FFF7A2FA0100214805F058FB9E
:10B090000120FFF7BDF901001E4805F051FB0A2011
:10B0A000FEF732FC01001C4805F04AFB03B030BD3E
:10B0B0006B460122DC711A2107336820FDF742FD3F
:10B0C0000100164805F03CFBFA202900400102F07F
:10B0D0005FFC6B460138D8710122192107336820C3
:10B0E000FDF730FD01000E4805F02AFBDEE7C04603
:10B0F0003F2A0020EC280200042902001C2902003B
:10B10000342902009C2000204C29020064290200FE
:10B110007C29020094290200AC290200C429020003
:10B12000DC2902000B0010B501000B4805F008FBFC
:10B13000A022A1238021FA20D205DB00C900D15032
:10B14000C000FDF7A9F8BFF34F8F044B044ADA6043
:10B15000BFF34F8FFEE7C046F429020000ED00E088
:10B160000400FA0580218023184A8902D1508022E8
:10B17000D221174B520289005A5040395A500122AD
:10B180002F205A600138C046C046C046C046C0465F
:10B19000C046C046C046C046C046C046C046F1D1C3
:10B1A0009A6000230B4A2F2013600138C046C04626
:10B1B000C046C046C046C046C046C046C046C0465F
:10B1C000C046C046F1D1044A1370704700E100E068
:10B1D000001001407C2300206D230020A021F0B549
:10B1E0000023C6462C4A490000B553500431535041
:10B1F00004315350043153504C395350043153509F
:10B20000264B1B68002B38D0254900255458254A69
:10B2100000271268244EA41A2402240A03E043469D
:10B22000002B1BD043461A68A24217D8A41AAD18A7
:10B23000DA6990461A7C002AF1D05A6999691F741C
:10B240003368002B1CD0100098470028E7D000225C
:10B250000021FFF767FF4346002BE3D11349144A4F
:10B260000B7812789A420ED0124A9B009D50802192
:10B270008023114A5B004903D15004BC9046F0BDC5
:10B2800008009047CBE70132D3B2022B01D00B70FC
:10B29000EAE700230B70E7E7001001408423002059
:10B2A000040500007C23002068230020792300206F
:10B2B000782300207023002000E100E0F0B545462F
:10B2C000DE4657464E46E0B5B44BB54A9846B549BA
:10B2D0001B688FB0049309781378994200D1C6E1B6
:10B2E0000133DBB2022B00D12EE11370AE4A9B007A
:10B2F0009E584246049B9B191B021B0A136009932C
:10B30000AA4B9A461B680693A94B1A78531EDBB2C8
:10B31000089301230D920C93002A00D1E8E1A54A7D
:10B32000A54B0392127899460792089A1B68D2009F
:10B3300094460B9363441900099B37000293002342
:10B34000019305939D4B0A929C46069A0B784C7884
:10B350009C421FD058004D68C0188E780133DBB274
:10B36000AB46F61A751EAE414D68C0008344285C9A
:10B3700076423340022815D00328E9D1002AE7D0CD
:10B3800000201074D269002AFAD14C780130019063
:10B390009C42DFD10B000B98083B884239D0190042
:10B3A0000B78D4E758464568002AD1D0954213D08F
:10B3B00010000600C0690028CAD08542F9D1B54204
:10B3C00013D00468C069F0610028C0D00568AB469E
:10B3D0005C4404604C78BBE7D46910001600002C74
:10B3E0000BD0220001240194EBE7D269002A04D09B
:10B3F0002C68E86901250195E8E76246012494601C
:10B400000024012202940134019205940022079441
:10B41000D7E7059B3E00002B00D13BE1039B07993A
:10B420001970434602991960019B002B00D137E146
:10B4300053461A60069B9B1A591E8B41DBB201933F
:10B440000C9B002B00D09BE100274B461B68039907
:10B450009C460978069307910A9900236144BC46EB
:10B46000994663460D00140000269046002B27D015
:10B470006346D9695F688C469A6802995048791A80
:10B480000902090A81424CD88A1801211A605E60BB
:10B490009E601974DE61002C52D02768210097420B
:10B4A00066D28B46C9690492D21B00294ED11A601C
:10B4B0005A46D961D36123001C006346002BD7D1C3
:10B4C0002A786F78BA425ED06B680493AB780593A4
:10B4D000049B51009B468918059B0132C900D2B2DA
:10B4E00059449A4256D02A700B78012B49D14B68A7
:10B4F000187C002845D18F6883465F60CA689A60CF
:10B500000869D8604969996107990029B5D05946F9
:10B510000027596002992A48791A0902090A8142CA
:10B52000B2D90299CF1B3F023F0A974216D201219E
:10B53000D21B1A605E609E601974DE61002CACD173
:10B5400001221C009146B8E70023CEE6086890422D
:10B5500015D3C019049FC01B0860A8E701221E6014
:10B560005E609E601A74DE61002CE9D000222768BC
:10B57000BA1A22600122DC6191461C009DE7070097
:10B580008FE79742A4D12B00069A083BAA4219D014
:10B590001D0095E700222E70A6E7C0467C23002000
:10B5A00078230020792300207023002084230020AA
:10B5B000802300206C2300208823002000100140FD
:10B5C000FEFF7F004B464246002B4BD053461C608B
:10B5D000A24248D0002C00D187E06D4A6D48236814
:10B5E0008158029A6C4C8A1A12022578120A033288
:10B5F000002D57D0934200D21300029AA8249446FB
:10B60000634464481B021B0A614DE4000351425924
:10B610005B1A521A1202120A1B0203321B0A9A42C6
:10B6200016D9435903512F200138C046C046C046A1
:10B63000C046C046C046C046C046C046C046C046DA
:10B64000C046F1D180238021544A5B008902D15049
:10B650000023039A13700FB03CBC90469946A24653
:10B66000AB46F0BD4446019B002BB3D1F0E74C4BF9
:10B670009A461B6806934B4B1A78531EDBB20D9209
:10B680000893002A00D178E0049B00260993002348
:10B690000C9344E6099B0293019B002B00D0C7E664
:10B6A000069ACDE68025D1266D02B6008551403E32
:10B6B0008551C0278026394DB6027F00EE512E609D
:10B6C000012505602F200138C046C046C046C0464F
:10B6D000C046C046C046C046C046C046C046C0463A
:10B6E000F1D1257086E7304B0393FFF73BFDAFE7C1
:10B6F000069B002BF7D0099B0293FF2308932A4B4C
:10B7000003930027002000253A00069B12E0DF6823
:10B71000DC69761A40181D60002F07D0DA611A0024
:10B7200004999F6009180902090A59600127002C31
:10B7300019D023001968B142E9D93C001700002C48
:10B7400019D0524613601A008E1B1E600D9B140008
:10B75000002B00D141E701230193144B9946089B2C
:10B76000DB000A9371E653461C600D9B1700220014
:10B77000002BF0D1B9E7069AE6E70B4B039367E796
:10B780000692002ABDD10C9B170001935DE6C046CE
:10B7900004050000001001406D23002000E100E0DE
:10B7A00084230020802300206C2300208823002095
:10B7B000F8B54746CE4680B503273E0080460D00CB
:10B7C0001400994616403A4247D1002A47D0FFF765
:10B7D000C9FC4A46244B00211A60244B6A001F70A2
:10B7E000234B52191C602300D200183363609B184E
:10B7F000E3609B1863611F4BC0221E601E4BC52077
:10B8000019701E4B268019708021A5702681A572A3
:10B810002682A574FF241A4B4903520099508000D8
:10B820001A58A2433F3C22431A50A1221960C42453
:10B8300041461448D2008150A4001A5912491140BF
:10B84000C02212020A431A51104BC258104B1A6000
:10B8500030000CBC90469946F8BD0726F8E7044B2B
:10B860001E600726F4E7C0466823002080230020DE
:10B8700088230020842300207823002079230020BF
:10B8800000E100E000100140FF00FFFF04050000A0
:10B890007C230020094B1B68002B0AD0002A0AD009
:10B8A000002808D00368187C002802D159745A6116
:10B8B00070470820FCE70720FAE7C04688230020ED
:10B8C000F0B5C64600B5344B1B68002B52D000289B
:10B8D00050D004295CD94469002C4BD0447C012C05
:10B8E0004AD00024A4462D4C6568ED05EC0D002DD2
:10B8F00015D0103C65B2260640D4AD08284EC035A0
:10B90000AD00AE5903252C40E400E640B4092C40BC
:10B91000E5B2012C04D0032D01D1083300E010332F
:10B920005F789D787E1CF6B2AD1B6C1EA5411C781D
:10B930006D422E40B4422DD05D687C00A846E419CB
:10B94000E4004444002C25D0012560602570154892
:10B95000154D2858E1606146A06021616261802137
:10B960005E70802300200E4A5B004903D15004BC66
:10B970009046F0BD0820FAE78C46B4E70F250B4E41
:10B980002540B046083DAD08AD0045446E68B9E7B6
:10B990000720ECE70420EAE78823002000ED00E020
:10B9A00000E100E0040500000010014018ED00E097
:10B9B00030B52B4B1B68002B43D0002841D0426987
:10B9C000002A3ED000220274264A5168C905CA0DD9
:10B9D000002920D110335C789A78611CC9B2521AC0
:10B9E000551EAA41524211401A788A4235D062004F
:10B9F00012195C68D200A4466244002A2DD00224A9
:10BA0000506014705970802380210020164A5B001A
:10BA10004903D15030BD103A51B2140613D48908ED
:10BA2000114CC03189000C5903210A40D200D44086
:10BA3000A2090A40D1B2012ACDD00329CAD10833C4
:10BA4000C9E70820E6E70F21084C1140A446083951
:10BA50008908890061444C68E6E70420DAE7C046BB
:10BA60008823002000ED00E000E100E018ED00E098
:10BA7000074B1B685B0706D5002806D0054B5B7893
:10BA80000360002070470820FCE70E20FAE7C0465C
:10BA9000582400208C23002071DF704772DF70472C
:10BAA00079DF70477DDF704765DF7047F0B5574637
:10BAB0004E464546DE46E0B587B0984612AB1B8839
:10BAC000119F01933B888146039303888A46029223
:10BAD000002B60D000239B4604AB0025DE1C04E055
:10BAE0004B461B8801359D422FDA53461B68A9003F
:10BAF0009C460422614405A804F018FE002231008F
:10BB000005A8FFF7D1FF041E2BD133784345E7D1B9
:10BB10005B46002B2DD043463A880199D3188B42BF
:10BB20003BDC109B31009C4605A86244FFF7BCFF3C
:10BB3000002834D13A88337801359B183B800123A3
:10BB40009B464B461B889D42CFDB5B46002B22D099
:10BB50003B88039A013B9B1A9BB2FF2B1DD810997F
:10BB60008B54200007B03CBC90469946A246AB4699
:10BB7000F0BD42463B8801999A1802328A420CDC99
:10BB8000109A029901339BB23B80D1543A8801321A
:10BB900092B23A80C5E70024E3E70C24E1E7040011
:10BBA000DFE7C046F0B557464E464546DE46002321
:10BBB000E0B517881380436B06000D00140087B0B2
:10BBC000002B00D1ADE1022F00D869E11A780223E1
:10BBD0000B701121238801339BB22380E954238801
:10BBE00001339BB22380EA54238801339BB2238024
:10BBF000326B002A00D170E019001231B94200D92D
:10BC00004EE11121E9542388013901339BB223808D
:10BC1000E954238801339BB22380D17BE9542388E4
:10BC200001339BB22380917BE954238801339BB27B
:10BC30002380517BE954238801339BB22380117BFD
:10BC4000E954238801339BB22380D17AE9542388B5
:10BC500001339BB22380917AE954238801339BB24C
:10BC60002380517AE954238801339BB22380117ACF
:10BC7000E954238801339BB22380D179E954238886
:10BC800001339BB223809179E954238801339BB21D
:10BC900023805179E954238801339BB223801179A1
:10BCA000E954238801339BB22380D178E954238857
:10BCB00001339BB223809178E954238801339BB2EE
:10BCC00023805178E954238801339BB22380127872
:10BCD000EA54238801339BB223802E22B25C002ACF
:10BCE00000D0FAE02D22B25C002A00D0D5E0B27874
:10BCF000002A00D017E1F278002A00D0D8E072685C
:10BD0000002A15D0D91CB94200D9C9E00221127805
:10BD1000E9542388083101339BB22380E9542388F6
:10BD200052B201339BB22380EA542388013323802B
:10BD30003389002B00D045E1338A002B00D060E12D
:10BD4000338B002B00D081E1336A002B43D0228853
:10BD500094460632BA4200D9A2E01A88052A00D8D1
:10BD600029E1B749B748511889B28146814200D8C4
:10BD700021E15988052900D81DE1B1488046884451
:10BD8000404680B2484500D815E1AF48824204D011
:10BD9000814202D08A4200D90DE1052261466A54EF
:10BDA00012212288013292B22280A95422880132C3
:10BDB00092B222801988AA181170090A517022883B
:10BDC000023292B222805988AA181170090A517061
:10BDD000238802332380736A9846002B23D09A88E5
:10BDE0002088911C831C5B18BB4259D8FE2957D868
:10BDF00003322A54FF22238801339BB22380EA5462
:10BE00004246238801339BB223801288EB181A70B4
:10BE1000120A5A7043462088023080B220809A88E5
:10BE2000002A00D078E12C23F35C002B00D02CE119
:10BE300033780020002B34D03288012A00D1BAE0B8
:10BE40002288901CB8422BD8012B04D1737802337E
:10BE50009B189F4224D36B46023FBF1ABFB22818DB
:10BE600004A91F82FFF71EFE00281AD13378022B87
:10BE700000D16CE1012B00D15DE10822FE2F0FD82B
:10BE80002388791CE954238801339BB22380EA5428
:10BE900023880133FF18278003E00933BB4262D9AE
:10BEA0000C2007B03CBC90469946A246AB46F0BD7C
:10BEB000D91CB942F4D80221E9542388013901334D
:10BEC0009BB22380E954238801339BB22380EA5438
:10BED000238801339BB2238011E7D91CB942DFD8F4
:10BEE00002211C20E954238801339BB22380E854AB
:10BEF000238801339BB22380032A00D122E15CD83E
:10BF0000012A00D120E1022A55D10122EA542D2232
:10BF1000238801339BB22380B25C002A00D1E6E67D
:10BF2000BBE7002364E60433BB42B9D804A8FFF79B
:10BF3000B7FD0028B5D103222388EA54238816329E
:10BF400001339BB22380EA546A462388128A013364
:10BF50009BB22380EB181A70120A5A70238802339E
:10BF60009BB22380C7E604A8FFF796FD002800D007
:10BF700097E70822112123886944EA542388133261
:10BF800001339BB22380EA542088153A013080B2F5
:10BF90002080281804F0CAFB6A462388127C0633E6
:10BFA0009BB22380002A00D0C3E0EA5423880133E7
:10BFB0009BB223809BE6072073E7042AFBD1032270
:10BFC000EA54A4E70823984604339946B044B144A0
:10BFD0000222494640460297019400950A3BFFF72A
:10BFE00065FD002800D05CE7102306224946404644
:10BFF000029701940095FFF759FD002800D19BE6B8
:10C000004FE71023984604339946B044B1440322C5
:10C0100049464046029701940095123BFFF746FDC2
:10C02000002800D03DE710230722494640460297EA
:10C0300001940095FFF73AFD002800D180E630E733
:10C040007FF3FFFF7DF30000FFFF000018239846F9
:10C0500004339946B044B1441422494640460297FD
:10C06000019400951A3BFFF721FD002800D018E746
:10C070001023152249464046029701940095FFF788
:10C0800015FD002800D15FE60BE7B36A002B92D0C4
:10C0900000229146163292461632934630E02288AC
:10C0A0000333AB545246238801339BB22380EA54B6
:10C0B0004246238801339BB223801288EB181A7002
:10C0C000120A5A7043462088023080B220809A8833
:10C0D000002A0BD09968002900D16CE7281804F0D9
:10C0E00025FB4246238892889B1823804B460133C8
:10C0F000DBB299465B46F35C4B4500D898E6B36AE1
:10C100004A46984652004A449200904443469B88CF
:10C110009A1CFE2AC3D9C3E69968002900D14AE7D0
:10C12000281804F003FB4246238892889B1823803A
:10C1300079E6012239E773789F4200D29DE61F001D
:10C1400008229BE6E954E2E60022EA54DFE66B4669
:10C150001B8A9F4200D290E61F0009228EE6C0464D
:10C1600030B593B01F236A4604000D009380D3803E
:10C17000002821D0C3785B0725D501AA02A9FFF7C3
:10C1800011FD002816D102AC002D18D0EB78002B41
:10C1900019D16B4628009A1D0AA9FFF703FD002854
:10C1A00008D16B469B790AAD6A46200011792A00B6
:10C1B000FFF774FC13B030BD9080002DE6D16B46C4
:10C1C000DD800023F0E70720F4E7C04673DF704707
:10C1D000F0B5A34D07220021280087B0FCF70AF82C
:10C1E000A04C6378002B1DD09F4E3378012B00D1DB
:10C1F000EEE0A278002A00D0F6E09C4F3A68022BCD
:10C200001CD103233370237B002B00D0AEE004232A
:10C210003370237E002B00D0A8E00023944A3370B3
:10C2200013701BE0A378002B48D1904F8E4E3A68D4
:10C230003378012B00D1ADE0022B4BD0217B0029BC
:10C2400001D1032BE3D0217E002901D1042BE4D0BE
:10C25000002A03D0033B012B00D88AE00022854B43
:10C260001A70182200216846FBF7C4FF00226B46B3
:10C270001A701A72337801920392032B00D1DFE017
:10C2800044D8012B00D1D4E0022B68D169460122A9
:10C290000A70A26801954A8262680A82744A137021
:10C2A0006846FFF793FF002806D13B68002B5BD060
:10C2B0006F4A10789847002007B0F0BD6A4E337877
:10C2C000022B00D195E0012B00D08FE0674F3A6838
:10C2D00002233370A378002B00D192E76B78002BF8
:10C2E000BCD1AB78002BB9D1EB78002BB6D12B7930
:10C2F000002BB3D16B79002BB0D1AB79002BADD132
:10C3000003233370237B002B30D180E7042BC7D16C
:10C310006946E2690A82226A4A8257490A79087B99
:10C3200002436ED10422524B1A70B9E72378002BD6
:10C3300000D190E0514B1B78002B00D08BE0694678
:10C3400002334F480B72023300210392C370FFF790
:10C3500007FF0028B0D10522454B1A703378002B17
:10C360009ED13B68002BA3D10020A5E7002A00D175
:10C3700074E72378002B00D170E7404B1B78002B2B
:10C3800000D06BE701213B4B07201970904768E70D
:10C390003C4B1A706378002B9AD06B78002B00D03E
:10C3A0005CE7AB78002B00D058E7EB78002B00D08F
:10C3B00054E72B79002B00D050E76B79002B00D08D
:10C3C0004CE7AB79002B00D048E70223337081E7BC
:10C3D000264F3A68002ADBD001212A4B0820197029
:10C3E00090473A68337824E7022B02D01F4F3A680F
:10C3F00024E71E4F3A68002AEED1224B1A70002221
:10C4000068E72278002A8DD01C4A1278002A89D148
:10C410006846023202721A4803910021C370FFF786
:10C420009FFE002800D047E70622114B1A70337890
:10C4300095E7694604920E4A01950B7013702FE739
:10C440006A4663695382236913820B4A1379117B0D
:10C450000B4300D06AE70322054B1A7020E7C04661
:10C46000F8240020602400205D240020C424002043
:10C470005C24002044250020342500204525002090
:10C4800084240020F4240020F8B504000E000028C5
:10C4900000D17DE0002A00D17AE000203D490870FB
:10C4A0003D490B6006993D4B19603D490B0023CA7D
:10C4B00023C323CA23C323CA23C307220021394825
:10C4C000FBF798FE384B394A394D1A60394A00213A
:10C4D0009A6028003822FBF78DFE237822002B700B
:10C4E000A3781032AB70E378EB7063786B702B003D
:10C4F000103303CA03C32B00103A083303CA03C323
:10C500002B000832183303CA03C3636A002B11D00F
:10C51000294B2A4F6B62616A9F600A881A8088885B
:10C520009880002806D000238A68D25CFA54013330
:10C530008342F9D3A36A002B14D0214B214FAB6265
:10C54000A16A9F60888898800A881A80002806D08F
:10C5500000238A68D25CFA5401338342F9D32C2336
:10C56000E25CEA54236A002B06D0174B2B62226A46
:10C570005188598012881A806368002B03D0134BAE
:10C580006B6063686B6031002800FFF7E9FDF8BD60
:10C590000E20FCE75D240020C4240020C0240020DD
:10C5A00060240020F82400203425002048250020A5
:10C5B0008424002068250020E8240020C8240020CE
:10C5C000002500200C2500202C25002030250020EF
:10C5D00010B500240B4B82B0187001A80194FFF72E
:10C5E00047FA082809D0002805D1019B002B05D067
:10C5F0000122054B1A7002B010BD0194FFF7E8FD4F
:10C60000F9E7C0465D240020BC24002030B5038833
:10C6100083B0112B05D0192B20D0102B1AD003B0CA
:10C6200030BD0024324B1C70324B82881B889A42EA
:10C63000F5D10125304B01A81D700194FFF718FAC0
:10C64000082833D0002836D1019B002B2FD02B4B4C
:10C650001D70E4E78288274B1A80E0E78579002D7A
:10C66000DDD1254B1C78032C3DD014D8012C2AD0C9
:10C670000322022CD3D101A81A700195FFF7F8F913
:10C6800008281ED0002816D1019B002B0FD00122B4
:10C690001A4B1A70C3E7042CC1D1194B1D70194BEA
:10C6A0001B68002BBBD000209847B8E70194FFF728
:10C6B0008FFD0028B3D0144B1B68002BAFD09847D8
:10C6C000ADE70195F3E7022201A81A700195FFF783
:10C6D000CFF90828F5D00028EDD1019B002BE6D03A
:10C6E000064B1C709BE7064A14700422C3E7C04641
:10C6F00045250020A62000205D240020BC24002029
:10C700005C240020C4240020C024002075DF704772
:10C7100076DF70477ADF70477BDF704710B5184BC4
:10C7200082B01888174B984214D0174A174C1378C8
:10C730000133DBB21370217B99420DD200231370B9
:10C74000237C002B12D16369002B03D0002201A8A7
:10C750000270984702B010BD0D49FFF7D7FF0028BF
:10C76000F8D0A369002BF5D09847F3E73B21FFF7FA
:10C77000CFFF0028E7D0A369002BE4D09847E2E779
:10C780008A250020FFFF0000D82500208C250020EE
:10C79000D025002030B51B4B1B4A5B88118883B025
:10C7A00099420CD852889A4209D3184B5B69002BE6
:10C7B00003D0012201A802709847154C0BE0144CDD
:10C7C0002378002B0BD0114B5B69002B03D0002288
:10C7D00001A8027098470023237003B030BD0D4BB1
:10C7E0000A4D1B78002B0BD0A96800220A48FFF7DE
:10C7F00067F80028EFD0AB69002BECD09847EAE748
:10C800006968F2E7C8250020D02500208C2500208B
:10C8100088250020D8250020A825002016490200E0
:10C820000B0070B532CA32C332CA32C312681A6002
:10C830000022124B01681A70002916D0104C0832E1
:10C84000200003F073FF2000FFF764FF00280BD1E6
:10C8500001220C4B52421A8000220B4B00211A700D
:10C860000A480B4AFFF716F870BD0548FFF754FF5A
:10C870000028EDD0F8E7C0468C2500208825002050
:10C88000D02500208A250020D82500201C2A02005F
:10C890001DC7010010B50388122B2ED015D8102B00
:10C8A00033D0112B10D10122204B52421A8000228A
:10C8B0001F4B20481A70FFF77BF8002804D01E4B4E
:10C8C0009B69002B00D0984710BD502BFCD11A4C0F
:10C8D000C288E3899A42F7D1C38B022BF4D11E336D
:10C8E000C35CDB070ED41348FFF762F80028EBD0D7
:10C8F000A369002BE8D09847E6E7811D08220F487E
:10C9000003F014FFFFF746FFDEE701008288074BC4
:10C910000A481A801631082203F008FF0022044B4F
:10C920001A70054BDB89002BCED1EBE78A2500205E
:10C93000D8250020A82500208C250020C82500200F
:10C94000A0DF7047A2DF704763DF704710B5002893
:10C9500008D0002906D00B88112B15D0502B05D0FC
:10C96000102B00D010BD8B888382FBE7CB88028A16
:10C970009A420DD082889A42F4D18369002BF1D07B
:10C98000CA8B20319847EDE701235B428382E9E7B8
:10C99000CA8B022AEED12123CA5C013BCB5C120276
:10C9A00013430122110019401A4201D08275D9E7C0
:10C9B0008175D7E7F0B557464E464546DE46E0B5A9
:10C9C00095B0040004A802005C4BE0CBE0C21B68F9
:10C9D0001360002C00D1AFE0002900D1ACE00123AE
:10C9E0005B42A3820B682100A3610023A375FFF7BC
:10C9F000ABFF051E07D0280015B03CBC90469946F9
:10CA0000A246AB46F0BD6A4623780120937201230B
:10CA100098466B46424602A91A81A21CFFF790FF76
:10CA2000051EE8D1032200216846FBF7E3FB444BD7
:10CA3000002199466B464A461A8006229B780DA82B
:10CA40009343022213436A4693701C22FBF7D2FBE6
:10CA500034216B4610225B181B7803AF13436A46E0
:10CA6000521813706B461293237801AEBB700323E8
:10CA70000322002130000E951095119513953B80EF
:10CA8000FBF7B8FB4B461F223380B37893469343A2
:10CA90000322924652460021134308A81422B37081
:10CAA000FBF7A8FB43466A460A931333938523009A
:10CAB0000DAD290060880C3308AA08970996FFF786
:10CAC00041FF051E97D11C2200210DA8FBF792FB08
:10CAD00034216A46521813780C22934313436A4652
:10CAE0005218137023780322BB70022300213000F8
:10CAF0000E9510951195129513953B80FBF77AFBD7
:10CB00004A4632805A46B37800219343524608A8D9
:10CB100013431422B370FBF76DFB424614230A92B1
:10CB20006A4693856088231D08AA0DA9089709966F
:10CB3000FFF708FF05005EE70E255CE7202A0200EC
:10CB4000111100002EDF704751DF704710DF704772
:10CB500061DF704710B50800110000E000BF10BD94
:10CB6000F0B5D6464F464646C0B53B4B82B01E6830
:10CB7000994675427541394BEDB29A461B68002BB8
:10CB800052D1002E05D102B01CBC90469946A24657
:10CB9000F0BD334B01269846324F01AC3B88210053
:10CBA000238043461D682800FFF7D2FF052830D0B8
:10CBB000002826D14B4628001B689847002E26D116
:10CBC0002000FFF7C1FF052821D000283ED1002515
:10CBD000534601981B689847002D0DD02000FFF7A1
:10CBE000B3FF01250528CED00028F1D00022002176
:10CBF000FEF798FA002DF1D1194B00269846194FEF
:10CC0000CCE700220021FEF78DFA002ED8D00126B5
:10CC1000C4E7002EB7D12000FFF796FF0528B2D059
:10CC200000280ED10125D3E701AC2000FFF78CFFCF
:10CC30000528D9D1002EA6D0094B01269846094FC8
:10CC4000ACE700220021FEF76DFAC7E700220021C1
:10CC5000FEF768FA0026A1E7DC250020E825002081
:10CC6000EC250020DA25002010B5002914D08C070F
:10CC700012D10A4C21600A490A800A4A0A49136003
:10CC8000FFF764FF002800D010BD0122074B1630CB
:10CC90001A70FFF757FFF7E70720F5E7EC250020AC
:10CCA000DA250020E025002055CB0100E4250020F6
:10CCB000002803D0024B1860002070470E20FCE7CC
:10CCC000DC25002010B50A4B1B68002B08D09847C4
:10CCD000002800D110BD00220021FEF723FAF9E759
:10CCE000044B1B78002BF5D0FFF73AFFF2E7C04664
:10CCF000E0250020E425002003210A4802680A43B9
:10CD00000260094802680A4302600849084A094B60
:10CD10009B1A03DD043BC858D050FBDC0648804713
:10CD2000064800472405004054050040842C0200BA
:10CD300000200020B42000200982010009810100A8
:10CD4000FEE7FEE7FEE7FEE7FEE7FEE730B54A0056
:10CD5000DB0FDB0752081A43110030BD4B005908A6
:10CD60007047C046F0B5CE46474680B58DB004004A
:10CD70000D0000F059F8264B060099461B780F006D
:10CD80005BB2013312D022002B002000290003F0F7
:10CD9000FBFB8046002809D120002900FFF7DEFFB9
:10CDA00000221C4B00F00AFF002806D13000390099
:10CDB0000DB00CBC90469946F0BD01230293164B72
:10CDC000164803934346069407950A9304940595E1
:10CDD00000F04EFD4B461B78089009915BB2022B88
:10CDE0000BD002A800F042FD002806D00A9B019358
:10CDF000002B07D1089E099FD8E703F083FC21236D
:10CE00000360F3E703F07EFC0A9B01930360F1E704
:10CE1000A82000200000F03F302A0200FC1B020086
:10CE200010B500F0F5F910BDF0B54F46D64680B507
:10CE3000D64B4E0007008A46894689B076089E4246
:10CE400018DDD34B9C466644064300D1FAE002004D
:10CE50000B003800514603F005F802000B0002F009
:10CE60008FF903000A001800110009B00CBC9146AC
:10CE70009A46F0BDC74B9E4211DCF9239B059E42AA
:10CE800000DB1AE1C44AC54B3800514601F00EFEE2
:10CE90000022C34B00F092FE002800D00AE13800C7
:10CEA0005146FFF75BFF02000B000020BC4902F077
:10CEB000D9FF0022BB4B02F069FD04000D00BA4A05
:10CEC000BA4B02F063FDBA4ABA4B01F0EFFD220003
:10CED0002B0002F05BFDB84AB84B02F0C3FF220002
:10CEE0002B0002F053FDB64AB64B01F0DFFD2200E5
:10CEF0002B0002F04BFDB44AB44B02F0B3FF22000A
:10CF00002B0002F043FDB24AB24B01F0CFFD2200EC
:10CF10002B0002F03BFDB04A02900391AF4B200082
:10CF2000290002F033FDAE4AAE4B02F09BFF220017
:10CF30002B0002F02BFDAC4AAC4B01F0B7FD2200F8
:10CF40002B0002F023FDAA4AAA4B02F08BFF22001D
:10CF50002B0002F01BFD924B002201F0A7FD049074
:10CF600005912000290000F00DFAA34B00900191DB
:10CF70009E4200DD7DE00098019902000B000F0049
:10CF800001F094FD049A059B06900791029803997D
:10CF900002F0F6F802000B000698079902F0F6FC82
:10CFA00000260290039132003B003000390002F06D
:10CFB000EDFC02000B002000290002F053FF3200BC
:10CFC00004000D00009801993B0001F06FFD020084
:10CFD0000B002000290002F0D3F802000B0001F042
:10CFE00065FD02000B008548854902F03BFF020009
:10CFF0000B000298039902F035FF320004000D0087
:10D000003B003000390001F051FD02000B007D486B
:10D010007D4902F027FF02000B002000290002F0EA
:10D0200021FF02000B007748774902F01BFF030045
:10D030000A004946002900DD15E7802109068C46D3
:10D04000624410E76F4A714B3800514602F09EFC73
:10D050006A4A04000D006A4B3800514602F096FC03
:10D0600002000B002000290001F020FD03000A004F
:10D07000F9E6049A059B0298039902F081F8009C56
:10D08000019D22002B0002F081FC22002B0001F008
:10D090000DFD02000B0001F009FD584A584B02F04B
:10D0A000E1FE02000B005748584902F0DBFE030086
:10D0B0000A00BEE73B005246D5E602000B003800EE
:10D0C000514602F063FC04000D00374A374B02F072
:10D0D0005DFC374A374B01F0E9FC22002B0002F0DF
:10D0E00055FC354A354B02F0BDFE22002B0002F004
:10D0F0004DFC334A334B01F0D9FC22002B0002F0E7
:10D1000045FC314A314B02F0ADFE22002B0002F00B
:10D110003DFC2F4A2F4B01F0C9FC22002B0002F0EE
:10D1200035FC2D4A009001912C4B2000290002F083
:10D130002DFC2B4A2B4B02F095FE22002B0002F017
:10D1400025FC294A294B01F0B1FC22002B0002F0FA
:10D150001DFC274A274B02F085FE22002B0002F01F
:10D1600015FC00220E4B01F0A1FC02000B00009800
:10D17000019902F005F83A00534602F007FC3A0024
:10D18000534601F093FC03000A006CE6FFFFEF3FFB
:10D19000000010C0FFFFDF3F9C7500883CE4377E35
:10D1A0000000F03F0000E03F09F7FD0DE13D023FC8
:10D1B00088B20175E0EF493F3B8F68B52882A43FF4
:10D1C0005544880E55C1C93F7D6FEB0312D6D43F3D
:10D1D000555555555555C53F82922EB1C5B8B33FEB
:10D1E00059018D1B6C06E63FC88A599CE52A004010
:10D1F0004B2D8A1C273A03403233EF3F075C143330
:10D2000026A6913C182D4454FB21E93FFB21F93F10
:10D21000F8B54746CE4680B517000C005A001900F5
:10D220007B4205003B434B485208DB0F13438342CC
:10D2300037D863005B089C4666466B422B43DB0F86
:10D24000A146334383422CD8434BCB183B433AD0BF
:10D2500002268B171E40E30F1E4363462B4329D043
:10D2600013003B4334D0824240D0844530D06346E3
:10D270009A1A12153C2A36DC002942DA3C3240DA8E
:10D2800000200021012E52D0022E45D0002E0DD0BC
:10D29000324A334B02F0E6FD324A334B02F0E2FDF4
:10D2A00004E02A002300380001F000FC0CBC90468A
:10D2B0009946F8BD022E11D028002100032EF5D189
:10D2C00028482A49F2E72800210000F033F9EDE769
:10D2D0004B462448002B04DB2549E7E72148224937
:10D2E000E4E72449E2E71F482149CBE7013E9445A2
:10D2F00022D0022E28D8204BF6009E193068716883
:10D30000D4E70B003A002800210001F039FFFFF7B5
:10D3100025FD00F00FF9B5E7104A114B02F0A2FD10
:10D3200002000B000F48104902F09CFDBEE780246C
:10D3300024060B191900B9E7022E08D80F4BF60086
:10D340009E1930687168B1E700200021AEE70548FA
:10D350000B49ABE70000F07F000010C0075C1433FE
:10D3600026A6A13C182D4454FB210940FB2109C0ED
:10D37000FB21F93FFB21F9BF502A0200382A0200A5
:10D38000FB21E93FF8B5684BCE4647460500020051
:10D3900018000C0080B50840984200D1A0E0002998
:10D3A00069DD081500D177E0604B0903C4188023BC
:10D3B000090B5B030B43C10703D4D00F5B00C318F9
:10D3C0005200611088465B00D10F5B18002180205D
:10D3D00016248C46520080030D189D4202DC291849
:10D3E0005B1B8444D50F5B00013CEB1852004008E6
:10D3F000002CF1D10020814680202026000609E083
:10D400008B425ED0D50F5B00013E5B195200400895
:10D41000002E16D005198B42F2DD0F002C18002DBE
:10D420004BDB5B1AAA42894149425B1A521BD50F5A
:10D430005B00013E814439005B1952004008002E18
:10D44000E8D1134345D14B465E0863465910384B2B
:10D45000994663464944DB0702D580231B061E43D9
:10D4600043461805431835001C00280021000CBC59
:10D4700090469946F8BD4B005B082B43F5D0002041
:10D4800000293AD1D30A190015385205002BF9D0DA
:10D4900080246403234241D1802300245B0349009C
:10D4A000250001341942FAD020260B001100A240B9
:10D4B000361BF140401B194376E7E743FF0FCF19B6
:10D4C000AFE795429ED82C18002DF6DB1F000023F5
:10D4D000ACE74B4601331DD04E4601367608B4E723
:10D4E0002A000B002800210002F050FA2A00230035
:10D4F00001F0DCFA05000C00B7E72A000B00280059
:10D50000210002F0AFFC02000B0001F039FE050023
:10D510000C00AAE701239946CC4496E701251100A7
:10D5200020266D42C5E7C0460000F07F01FCFFFFEA
:10D530000000E03FF8B54E4657464546DE46A44B50
:10D54000E0B54E00804689468A4676089E420CDD4C
:10D55000A04B9E4200DDA3E000D19EE05346002B8D
:10D5600000DCE1E09C4B9D4AA2E09D4B9E4200DD29
:10D57000B4E09C4B9E4200DCA2E001235B429B4650
:10D5800042464B464046494602F000FA02000B0074
:10D5900006000F0002F0FAF904000D00924A934BC6
:10D5A00002F0F4F9924A934B01F080FA22002B002A
:10D5B00002F0ECF9904A914B01F078FA22002B002E
:10D5C00002F0E4F98E4A8F4B01F070FA22002B0032
:10D5D00002F0DCF98C4A8D4B01F068FA22002B0036
:10D5E00002F0D4F98A4A8B4B01F060FA32003B001A
:10D5F00002F0CCF9884A894B06000F002000290070
:10D6000002F0C4F9864A874B02F02CFC22002B0062
:10D6100002F0BCF9844A854B02F024FC22002B0066
:10D6200002F0B4F9824A834B02F01CFC22002B006A
:10D6300002F0ACF9804A814B02F014FC22002B006E
:10D6400002F0A4F90B0059460200013100D16EE04E
:10D6500059463000CC00390001F028FA42464B46CA
:10D6600002F094F9764D774B2D191C1922686368E6
:10D6700002F0F8FB42464B4602F0F4FB02000B00BE
:10D680002868696802F0EEFB030050460A00002893
:10D690000EDA802212068A180AE0002800D15DE71F
:10D6A00042464B464046494601F000FA03000A0054
:10D6B000180011003CBC90469946A246AB46F8BD06
:10D6C000614A624B01F0F2F90022614B00F076FAF8
:10D6D000002800D151E743464A46E9E7FFF73EFB01
:10D6E0005C4B04000D009E4232DC5B4B9E4258DCDA
:10D6F00002000B0001F0DAF90022554B02F0B2FBF8
:10D70000802306000F000022DB052000290001F025
:10D71000CDF90B0002003900300001F031FD00238B
:10D72000804689469B462BE72B4B4C4AC0E730008E
:10D73000390001F0BBF942464B4602F027F90200DE
:10D740000B004046494602F08DFB03000A00AFE79C
:10D75000434B9E421ADC0022424B02F083FB002224
:10D7600006000F003F4B2000290002F00FF90022B5
:10D77000374B01F09BF90B0002003900300001F03B
:10D78000FFFC0223804689469B46F9E60B00020017
:10D790003549002001F0F4FC0323804689469B466E
:10D7A000EEE600222A4B02F05DFB002206000F008D
:10D7B000274B2000290001F079F90B000200390005
:10D7C000300001F0DDFC0123804689469B46D7E608
:10D7D000FFFF0F440000F07F182D4454FB21F93F58
:10D7E000FFFFDB3FFFFF1F3E11DA22E33AAD903F20
:10D7F000EB0D76244B7BA93F513DD0A0660DB13F88
:10D800006E204CC5CD45B73FFF8300922449C23FEF
:10D810000D5555555555D53F2F6C6A2C44B4A2BFB4
:10D820009AFDDE522DDEAD3F6D9A74AFF2B0B33F7C
:10D83000711623FEC671BC3FC4EB98999999C93FF4
:10D84000682A0200882A02009C7500883CE4377E22
:10D850000000F03FFFFFF23FFFFFE53FFB21F9BF74
:10D86000FF7F03400000F83F0000F0BF002070473A
:10D87000002001497047C0460000F87F002243089D
:10D880008B4274D303098B425FD3030A8B4244D388
:10D89000030B8B4228D3030C8B420DD3FF220902CA
:10D8A00012BA030C8B4202D31212090265D0030B89
:10D8B0008B4219D300E0090AC30B8B4201D3CB037F
:10D8C000C01A5241830B8B4201D38B03C01A5241C1
:10D8D000430B8B4201D34B03C01A5241030B8B42C3
:10D8E00001D30B03C01A5241C30A8B4201D3CB02AE
:10D8F000C01A5241830A8B4201D38B02C01A524193
:10D90000430A8B4201D34B02C01A5241030A8B4295
:10D9100001D30B02C01A5241CDD2C3098B4201D3AD
:10D92000CB01C01A524183098B4201D38B01C01A2B
:10D93000524143098B4201D34B01C01A52410309A2
:10D940008B4201D30B01C01A5241C3088B4201D351
:10D95000CB00C01A524183088B4201D38B00C01AFE
:10D96000524143088B4201D34B00C01A5241411A25
:10D9700000D20146524110467047FFE701B5002032
:10D9800000F0F0F802BDC0460029F7D076E77047F6
:10D9900003460B437FD4002243088B4274D3030910
:10D9A0008B425FD3030A8B4244D3030B8B4228D3B1
:10D9B000030C8B420DD3FF22090212BA030C8B42D7
:10D9C00002D31212090265D0030B8B4219D300E077
:10D9D000090AC30B8B4201D3CB03C01A5241830BFC
:10D9E0008B4201D38B03C01A5241430B8B4201D3AC
:10D9F0004B03C01A5241030B8B4201D30B03C01AD5
:10DA00005241C30A8B4201D3CB02C01A5241830A4E
:10DA10008B4201D38B02C01A5241430A8B4201D37D
:10DA20004B02C01A5241030A8B4201D30B02C01AA7
:10DA30005241CDD2C3098B4201D3CB01C01A52410E
:10DA400083098B4201D38B01C01A524143098B4297
:10DA500001D34B01C01A524103098B4201D30B0180
:10DA6000C01A5241C3088B4201D3CB00C01A5241A5
:10DA700083088B4201D38B00C01A524143088B426A
:10DA800001D34B00C01A5241411A00D20146524103
:10DA9000104670475DE0CA0F00D04942031000D322
:10DAA0004042534000229C4603098B422DD3030A77
:10DAB0008B4212D3FC22890112BA030A8B420CD387
:10DAC000890192118B4208D3890192118B4204D3B0
:10DAD00089013AD0921100E08909C3098B4201D330
